{
  "contractName": "EthSwap",
  "abi": [
    {
      "inputs": [
        {
          "internalType": "contract Token",
          "name": "_token",
          "type": "address"
        }
      ],
      "stateMutability": "nonpayable",
      "type": "constructor"
    },
    {
      "anonymous": false,
      "inputs": [
        {
          "indexed": false,
          "internalType": "address",
          "name": "buyer",
          "type": "address"
        },
        {
          "indexed": false,
          "internalType": "address",
          "name": "token",
          "type": "address"
        },
        {
          "indexed": false,
          "internalType": "uint256",
          "name": "value",
          "type": "uint256"
        }
      ],
      "name": "tokenPurchased",
      "type": "event"
    },
    {
      "anonymous": false,
      "inputs": [
        {
          "indexed": false,
          "internalType": "address",
          "name": "seller",
          "type": "address"
        },
        {
          "indexed": false,
          "internalType": "address",
          "name": "token",
          "type": "address"
        },
        {
          "indexed": false,
          "internalType": "uint256",
          "name": "value",
          "type": "uint256"
        }
      ],
      "name": "tokenSold",
      "type": "event"
    },
    {
      "inputs": [],
      "name": "name",
      "outputs": [
        {
          "internalType": "string",
          "name": "",
          "type": "string"
        }
      ],
      "stateMutability": "view",
      "type": "function",
      "constant": true
    },
    {
      "inputs": [],
      "name": "price",
      "outputs": [
        {
          "internalType": "uint256",
          "name": "",
          "type": "uint256"
        }
      ],
      "stateMutability": "view",
      "type": "function",
      "constant": true
    },
    {
      "inputs": [],
      "name": "token",
      "outputs": [
        {
          "internalType": "contract Token",
          "name": "",
          "type": "address"
        }
      ],
      "stateMutability": "view",
      "type": "function",
      "constant": true
    },
    {
      "inputs": [
        {
          "internalType": "uint256",
          "name": "_numberOfToken",
          "type": "uint256"
        }
      ],
      "name": "buyTokens",
      "outputs": [
        {
          "internalType": "bool",
          "name": "success",
          "type": "bool"
        }
      ],
      "stateMutability": "payable",
      "type": "function",
      "payable": true
    },
    {
      "inputs": [
        {
          "internalType": "uint256",
          "name": "_numberOfToken",
          "type": "uint256"
        }
      ],
      "name": "sellTokens",
      "outputs": [
        {
          "internalType": "bool",
          "name": "success",
          "type": "bool"
        }
      ],
      "stateMutability": "nonpayable",
      "type": "function"
    }
  ],
  "bytecode": "0x60806040526040518060400160405280601881526020017f4574685377617020496e7374616e742045786368616e676500000000000000008152506000908051906020019062000051929190620000d9565b5067016345785d8a00006002553480156200006b57600080fd5b5060405162000d4e38038062000d4e833981810160405281019062000091919062000207565b80600160006101000a81548173ffffffffffffffffffffffffffffffffffffffff021916908373ffffffffffffffffffffffffffffffffffffffff160217905550506200029e565b828054620000e79062000268565b90600052602060002090601f0160209004810192826200010b576000855562000157565b82601f106200012657805160ff191683800117855562000157565b8280016001018555821562000157579182015b828111156200015657825182559160200191906001019062000139565b5b5090506200016691906200016a565b5090565b5b80821115620001855760008160009055506001016200016b565b5090565b600080fd5b600073ffffffffffffffffffffffffffffffffffffffff82169050919050565b6000620001bb826200018e565b9050919050565b6000620001cf82620001ae565b9050919050565b620001e181620001c2565b8114620001ed57600080fd5b50565b6000815190506200020181620001d6565b92915050565b60006020828403121562000220576200021f62000189565b5b60006200023084828501620001f0565b91505092915050565b7f4e487b7100000000000000000000000000000000000000000000000000000000600052602260045260246000fd5b600060028204905060018216806200028157607f821691505b6020821081141562000298576200029762000239565b5b50919050565b610aa080620002ae6000396000f3fe60806040526004361061004a5760003560e01c806306fdde031461004f5780633610724e1461007a5780636c11bcd3146100aa578063a035b1fe146100e7578063fc0c546a14610112575b600080fd5b34801561005b57600080fd5b5061006461013d565b6040516100719190610665565b60405180910390f35b610094600480360381019061008f91906106c2565b6101cb565b6040516100a1919061070a565b60405180910390f35b3480156100b657600080fd5b506100d160048036038101906100cc91906106c2565b610371565b6040516100de919061070a565b60405180910390f35b3480156100f357600080fd5b506100fc610569565b6040516101099190610734565b60405180910390f35b34801561011e57600080fd5b5061012761056f565b60405161013491906107ce565b60405180910390f35b6000805461014a90610818565b80601f016020809104026020016040519081016040528092919081815260200182805461017690610818565b80156101c35780601f10610198576101008083540402835291602001916101c3565b820191906000526020600020905b8154815290600101906020018083116101a657829003601f168201915b505050505081565b60006101d982600254610595565b34146101e457600080fd5b81600160009054906101000a900473ffffffffffffffffffffffffffffffffffffffff1673ffffffffffffffffffffffffffffffffffffffff166370a08231306040518263ffffffff1660e01b8152600401610240919061086b565b602060405180830381865afa15801561025d573d6000803e3d6000fd5b505050506040513d601f19601f82011682018060405250810190610281919061089b565b101561028c57600080fd5b600160009054906101000a900473ffffffffffffffffffffffffffffffffffffffff1673ffffffffffffffffffffffffffffffffffffffff1663a9059cbb33846040518363ffffffff1660e01b81526004016102e99291906108c8565b6020604051808303816000875af1158015610308573d6000803e3d6000fd5b505050506040513d601f19601f8201168201806040525081019061032c919061091d565b507f9d20344f4ea5f5902fd4f74982f14d66dac0836a377ffc9725bf07f589477aea3330846040516103609392919061094a565b60405180910390a160019050919050565b600081600160009054906101000a900473ffffffffffffffffffffffffffffffffffffffff1673ffffffffffffffffffffffffffffffffffffffff166370a08231336040518263ffffffff1660e01b81526004016103cf919061086b565b602060405180830381865afa1580156103ec573d6000803e3d6000fd5b505050506040513d601f19601f82011682018060405250810190610410919061089b565b101561041b57600080fd5b60006002548361042b91906109b0565b90508047101561043a57600080fd5b600160009054906101000a900473ffffffffffffffffffffffffffffffffffffffff1673ffffffffffffffffffffffffffffffffffffffff166323b872dd3330866040518463ffffffff1660e01b81526004016104999392919061094a565b6020604051808303816000875af11580156104b8573d6000803e3d6000fd5b505050506040513d601f19601f820116820180604052508101906104dc919061091d565b503373ffffffffffffffffffffffffffffffffffffffff166108fc829081150290604051600060405180830381858888f19350505050158015610523573d6000803e3d6000fd5b507f35db386d36c4fbdfefbd90851cd5e19bec6f86c8f37e6b379b02dcc5f3204ffc3330856040516105579392919061094a565b60405180910390a16001915050919050565b60025481565b600160009054906101000a900473ffffffffffffffffffffffffffffffffffffffff1681565b6000808214806105bd5750828283856105ae91906109b0565b9250826105bb9190610a39565b145b6105c657600080fd5b92915050565b600081519050919050565b600082825260208201905092915050565b60005b838110156106065780820151818401526020810190506105eb565b83811115610615576000848401525b50505050565b6000601f19601f8301169050919050565b6000610637826105cc565b61064181856105d7565b93506106518185602086016105e8565b61065a8161061b565b840191505092915050565b6000602082019050818103600083015261067f818461062c565b905092915050565b600080fd5b6000819050919050565b61069f8161068c565b81146106aa57600080fd5b50565b6000813590506106bc81610696565b92915050565b6000602082840312156106d8576106d7610687565b5b60006106e6848285016106ad565b91505092915050565b60008115159050919050565b610704816106ef565b82525050565b600060208201905061071f60008301846106fb565b92915050565b61072e8161068c565b82525050565b60006020820190506107496000830184610725565b92915050565b600073ffffffffffffffffffffffffffffffffffffffff82169050919050565b6000819050919050565b600061079461078f61078a8461074f565b61076f565b61074f565b9050919050565b60006107a682610779565b9050919050565b60006107b88261079b565b9050919050565b6107c8816107ad565b82525050565b60006020820190506107e360008301846107bf565b92915050565b7f4e487b7100000000000000000000000000000000000000000000000000000000600052602260045260246000fd5b6000600282049050600182168061083057607f821691505b60208210811415610844576108436107e9565b5b50919050565b60006108558261074f565b9050919050565b6108658161084a565b82525050565b6000602082019050610880600083018461085c565b92915050565b60008151905061089581610696565b92915050565b6000602082840312156108b1576108b0610687565b5b60006108bf84828501610886565b91505092915050565b60006040820190506108dd600083018561085c565b6108ea6020830184610725565b9392505050565b6108fa816106ef565b811461090557600080fd5b50565b600081519050610917816108f1565b92915050565b60006020828403121561093357610932610687565b5b600061094184828501610908565b91505092915050565b600060608201905061095f600083018661085c565b61096c602083018561085c565b6109796040830184610725565b949350505050565b7f4e487b7100000000000000000000000000000000000000000000000000000000600052601160045260246000fd5b60006109bb8261068c565b91506109c68361068c565b9250817fffffffffffffffffffffffffffffffffffffffffffffffffffffffffffffffff04831182151516156109ff576109fe610981565b5b828202905092915050565b7f4e487b7100000000000000000000000000000000000000000000000000000000600052601260045260246000fd5b6000610a448261068c565b9150610a4f8361068c565b925082610a5f57610a5e610a0a565b5b82820490509291505056fea26469706673582212207f1e499fd51168b10f2c3b0b4675af9aaa12dde3ac9107989c3b412afdb38f1c64736f6c634300080b0033",
  "immutableReferences": {},
  "source": "//SPDX-License-Identifier: UNLICENSED\r\n\r\npragma solidity >= 0.5.0 < 0.9.0;\r\n\r\nimport \"./Token.sol\";\r\n\r\ncontract EthSwap{\r\n    string public name=\"EthSwap Instant Exchange\";\r\n    Token public token;\r\n    uint public price=100000000000000000;\r\n\r\n    constructor(Token _token) {\r\n        token=_token;\r\n    }\r\n\r\n    event tokenPurchased(address buyer,address token,uint256 value);\r\n    event tokenSold(address seller,address token,uint256 value);\r\n\r\n    //functions\r\n    function multiply(uint x,uint y) internal pure returns(uint z){\r\n        require(y == 0 || (z = x * y) / y == x);\r\n    }//ds-math\r\n\r\n    function buyTokens(uint _numberOfToken) public payable returns(bool success){\r\n        require(msg.value == multiply(_numberOfToken ,price));\r\n        require(token.balanceOf(address(this)) >= _numberOfToken);\r\n        token.transfer(msg.sender, _numberOfToken);\r\n        emit tokenPurchased(msg.sender,address(this),_numberOfToken);\r\n        return true;\r\n    }\r\n\r\n    function sellTokens(uint _numberOfToken) public returns(bool success){\r\n        require(token.balanceOf(msg.sender)>= _numberOfToken);\r\n        uint etherAmount=_numberOfToken*price;\r\n        require(address(this).balance>=etherAmount);\r\n        \r\n\r\n        token.transferFrom(msg.sender, address(this), _numberOfToken);\r\n\r\n        payable(msg.sender).transfer(etherAmount);\r\n        emit tokenSold(msg.sender, address(this), _numberOfToken);\r\n        return true;\r\n    }\r\n    \r\n}",
  "sourcePath": "C:\\Users\\ACT\\Desktop\\starter_kit\\contracts\\EthSwap.sol",
  "compiler": {
    "name": "solc",
    "version": "0.8.11+commit.d7f03943.Emscripten.clang"
  },
  "schemaVersion": "3.4.4",
  "updatedAt": "2022-02-18T10:01:11.781Z",
  "networkType": "ethereum",
  "devdoc": {
    "kind": "dev",
    "methods": {},
    "version": 1
  },
  "userdoc": {
    "kind": "user",
    "methods": {},
    "version": 1
  }
}